{
  "address": "0x253fe51A231E4d4C2F0490A32520076672863E18",
  "abi": [
    {
      "inputs": [
        {
          "internalType": "address",
          "name": "vrfCoordinatorV2",
          "type": "address"
        },
        {
          "internalType": "uint256",
          "name": "entranceFee",
          "type": "uint256"
        },
        {
          "internalType": "bytes32",
          "name": "gasLane",
          "type": "bytes32"
        },
        {
          "internalType": "uint64",
          "name": "subscriptionId",
          "type": "uint64"
        },
        {
          "internalType": "uint32",
          "name": "callbackGasLimit",
          "type": "uint32"
        },
        {
          "internalType": "uint256",
          "name": "interval",
          "type": "uint256"
        }
      ],
      "stateMutability": "nonpayable",
      "type": "constructor"
    },
    {
      "inputs": [
        {
          "internalType": "address",
          "name": "have",
          "type": "address"
        },
        {
          "internalType": "address",
          "name": "want",
          "type": "address"
        }
      ],
      "name": "OnlyCoordinatorCanFulfill",
      "type": "error"
    },
    {
      "inputs": [],
      "name": "Raffle__NotEnoughEthEntered",
      "type": "error"
    },
    {
      "inputs": [],
      "name": "Raffle__NotOpen",
      "type": "error"
    },
    {
      "inputs": [],
      "name": "Raffle__TransferFailed",
      "type": "error"
    },
    {
      "inputs": [
        {
          "internalType": "uint256",
          "name": "currentBalance",
          "type": "uint256"
        },
        {
          "internalType": "uint256",
          "name": "numPlayers",
          "type": "uint256"
        },
        {
          "internalType": "uint256",
          "name": "raffleState",
          "type": "uint256"
        }
      ],
      "name": "Raffle__upkeepNotNeeded",
      "type": "error"
    },
    {
      "anonymous": false,
      "inputs": [
        {
          "indexed": true,
          "internalType": "address",
          "name": "player",
          "type": "address"
        }
      ],
      "name": "raffleEnter",
      "type": "event"
    },
    {
      "anonymous": false,
      "inputs": [
        {
          "indexed": true,
          "internalType": "uint256",
          "name": "requestId",
          "type": "uint256"
        }
      ],
      "name": "requestedRaffleWinner",
      "type": "event"
    },
    {
      "anonymous": false,
      "inputs": [
        {
          "indexed": true,
          "internalType": "address",
          "name": "winner",
          "type": "address"
        }
      ],
      "name": "winnerPicked",
      "type": "event"
    },
    {
      "inputs": [
        {
          "internalType": "bytes",
          "name": "",
          "type": "bytes"
        }
      ],
      "name": "checkUpkeep",
      "outputs": [
        {
          "internalType": "bool",
          "name": "upkeepNeeded",
          "type": "bool"
        },
        {
          "internalType": "bytes",
          "name": "",
          "type": "bytes"
        }
      ],
      "stateMutability": "nonpayable",
      "type": "function"
    },
    {
      "inputs": [],
      "name": "enterRaffle",
      "outputs": [],
      "stateMutability": "payable",
      "type": "function"
    },
    {
      "inputs": [],
      "name": "getEnteranceFee",
      "outputs": [
        {
          "internalType": "uint256",
          "name": "",
          "type": "uint256"
        }
      ],
      "stateMutability": "view",
      "type": "function"
    },
    {
      "inputs": [],
      "name": "getInterval",
      "outputs": [
        {
          "internalType": "uint256",
          "name": "",
          "type": "uint256"
        }
      ],
      "stateMutability": "view",
      "type": "function"
    },
    {
      "inputs": [],
      "name": "getLatestTimeStamp",
      "outputs": [
        {
          "internalType": "uint256",
          "name": "",
          "type": "uint256"
        }
      ],
      "stateMutability": "view",
      "type": "function"
    },
    {
      "inputs": [],
      "name": "getNumWords",
      "outputs": [
        {
          "internalType": "uint256",
          "name": "",
          "type": "uint256"
        }
      ],
      "stateMutability": "pure",
      "type": "function"
    },
    {
      "inputs": [],
      "name": "getNumberOfPlayers",
      "outputs": [
        {
          "internalType": "uint256",
          "name": "",
          "type": "uint256"
        }
      ],
      "stateMutability": "view",
      "type": "function"
    },
    {
      "inputs": [
        {
          "internalType": "uint256",
          "name": "index",
          "type": "uint256"
        }
      ],
      "name": "getPlayer",
      "outputs": [
        {
          "internalType": "address",
          "name": "",
          "type": "address"
        }
      ],
      "stateMutability": "view",
      "type": "function"
    },
    {
      "inputs": [],
      "name": "getRaffleState",
      "outputs": [
        {
          "internalType": "enum Lottery.RaffleState",
          "name": "",
          "type": "uint8"
        }
      ],
      "stateMutability": "view",
      "type": "function"
    },
    {
      "inputs": [],
      "name": "getRecentWinner",
      "outputs": [
        {
          "internalType": "address",
          "name": "",
          "type": "address"
        }
      ],
      "stateMutability": "view",
      "type": "function"
    },
    {
      "inputs": [],
      "name": "getRequestConfirmation",
      "outputs": [
        {
          "internalType": "uint256",
          "name": "",
          "type": "uint256"
        }
      ],
      "stateMutability": "pure",
      "type": "function"
    },
    {
      "inputs": [
        {
          "internalType": "bytes",
          "name": "",
          "type": "bytes"
        }
      ],
      "name": "performUpkeep",
      "outputs": [],
      "stateMutability": "nonpayable",
      "type": "function"
    },
    {
      "inputs": [
        {
          "internalType": "uint256",
          "name": "requestId",
          "type": "uint256"
        },
        {
          "internalType": "uint256[]",
          "name": "randomWords",
          "type": "uint256[]"
        }
      ],
      "name": "rawFulfillRandomWords",
      "outputs": [],
      "stateMutability": "nonpayable",
      "type": "function"
    }
  ],
  "transactionHash": "0xa32b4e48bc3d84d7980b74a76e9d8efff232a0136d76e97964c4d98020798520",
  "args": [
    "0x2ca8e0c643bde4c2e08ab1fa0da3401adad7734d",
    "10000000000000000",
    "0x79d3d8832d904592c0bf9818b621522c988bb8b0c05cdc3b15aea1b6e8db0c15",
    "10215",
    "500000",
    "30"
  ],
  "numDeployments": 1,
  "solcInputHash": "88414b93a6109739722f83858e5884cd",
  "bytecode": "0x6101606040523480156200001257600080fd5b506040516200180438038062001804833981810160405281019062000038919062000294565b858073ffffffffffffffffffffffffffffffffffffffff1660808173ffffffffffffffffffffffffffffffffffffffff1681525050508460a081815250508573ffffffffffffffffffffffffffffffffffffffff1660c08173ffffffffffffffffffffffffffffffffffffffff16815250508360e081815250508267ffffffffffffffff166101008167ffffffffffffffff16815250508163ffffffff166101208163ffffffff16815250506000600160146101000a81548160ff021916908360018111156200010d576200010c62000330565b5b0217905550426002819055508061014081815250505050505050506200035f565b600080fd5b600073ffffffffffffffffffffffffffffffffffffffff82169050919050565b6000620001608262000133565b9050919050565b620001728162000153565b81146200017e57600080fd5b50565b600081519050620001928162000167565b92915050565b6000819050919050565b620001ad8162000198565b8114620001b957600080fd5b50565b600081519050620001cd81620001a2565b92915050565b6000819050919050565b620001e881620001d3565b8114620001f457600080fd5b50565b6000815190506200020881620001dd565b92915050565b600067ffffffffffffffff82169050919050565b6200022d816200020e565b81146200023957600080fd5b50565b6000815190506200024d8162000222565b92915050565b600063ffffffff82169050919050565b6200026e8162000253565b81146200027a57600080fd5b50565b6000815190506200028e8162000263565b92915050565b60008060008060008060c08789031215620002b457620002b36200012e565b5b6000620002c489828a0162000181565b9650506020620002d789828a01620001bc565b9550506040620002ea89828a01620001f7565b9450506060620002fd89828a016200023c565b93505060806200031089828a016200027d565b92505060a06200032389828a01620001bc565b9150509295509295509295565b7f4e487b7100000000000000000000000000000000000000000000000000000000600052602160045260246000fd5b60805160a05160c05160e051610100516101205161014051611435620003cf600039600081816107e8015261084a0152600061067d0152600061065a01526000610639015260006105fd0152600081816103cf015261076401526000818161030f015261036301526114356000f3fe6080604052600436106100c25760003560e01c8063535bf50f1161007f57806391ad27b41161005957806391ad27b414610238578063ca6a9ef814610263578063e55ae4e81461028e578063fd6673f5146102cb576100c2565b8063535bf50f146101a457806353a2c19a146101cf5780636e04ff0d146101fa576100c2565b8063115cbaf5146100c75780631fe543e3146100f25780632cfcc5391461011b578063320229eb146101255780634585e33b14610150578063473f1ddc14610179575b600080fd5b3480156100d357600080fd5b506100dc6102f6565b6040516100e99190610c1d565b60405180910390f35b3480156100fe57600080fd5b5061011960048036038101906101149190610ddb565b61030d565b005b6101236103cd565b005b34801561013157600080fd5b5061013a61053c565b6040516101479190610e46565b60405180910390f35b34801561015c57600080fd5b5061017760048036038101906101729190610ebc565b610546565b005b34801561018557600080fd5b5061018e610736565b60405161019b9190610f4a565b60405180910390f35b3480156101b057600080fd5b506101b9610760565b6040516101c69190610e46565b60405180910390f35b3480156101db57600080fd5b506101e4610788565b6040516101f19190610e46565b60405180910390f35b34801561020657600080fd5b50610221600480360381019061021c919061101a565b610797565b60405161022f9291906110fd565b60405180910390f35b34801561024457600080fd5b5061024d610846565b60405161025a9190610e46565b60405180910390f35b34801561026f57600080fd5b5061027861086e565b6040516102859190610e46565b60405180910390f35b34801561029a57600080fd5b506102b560048036038101906102b0919061112d565b61087b565b6040516102c29190610f4a565b60405180910390f35b3480156102d757600080fd5b506102e06108c2565b6040516102ed9190610e46565b60405180910390f35b6000600160149054906101000a900460ff16905090565b7f000000000000000000000000000000000000000000000000000000000000000073ffffffffffffffffffffffffffffffffffffffff163373ffffffffffffffffffffffffffffffffffffffff16146103bf57337f00000000000000000000000000000000000000000000000000000000000000006040517f1cf993f40000000000000000000000000000000000000000000000000000000081526004016103b692919061115a565b60405180910390fd5b6103c982826108ce565b5050565b7f0000000000000000000000000000000000000000000000000000000000000000341015610427576040517f066d781f00000000000000000000000000000000000000000000000000000000815260040160405180910390fd5b6000600181111561043b5761043a610ba6565b5b600160149054906101000a900460ff16600181111561045d5761045c610ba6565b5b14610494576040517f1425571c00000000000000000000000000000000000000000000000000000000815260040160405180910390fd5b6000339080600181540180825580915050600190039060005260206000200160009091909190916101000a81548173ffffffffffffffffffffffffffffffffffffffff021916908373ffffffffffffffffffffffffffffffffffffffff1602179055503373ffffffffffffffffffffffffffffffffffffffff167f742d070bf0f3edace132a9da8ba725e8cf99c478869cee7f673ed6085e2f8e6460405160405180910390a2565b6000600254905090565b600061056060405180602001604052806000815250610797565b509050806105cf5747600080549050600160149054906101000a900460ff16600181111561059157610590610ba6565b5b6040517f837325cd0000000000000000000000000000000000000000000000000000000081526004016105c693929190611183565b60405180910390fd5b60018060146101000a81548160ff021916908360018111156105f4576105f3610ba6565b5b021790555060007f000000000000000000000000000000000000000000000000000000000000000073ffffffffffffffffffffffffffffffffffffffff16635d3b1d307f00000000000000000000000000000000000000000000000000000000000000007f000000000000000000000000000000000000000000000000000000000000000060037f000000000000000000000000000000000000000000000000000000000000000060016040518663ffffffff1660e01b81526004016106be959493929190611232565b6020604051808303816000875af11580156106dd573d6000803e3d6000fd5b505050506040513d601f19601f82011682018060405250810190610701919061129a565b9050807fe0abfa81226f1e2ce09ba287cbb4c241e89b2b891a389274bb7d9c46e344daf060405160405180910390a250505050565b6000600160009054906101000a900473ffffffffffffffffffffffffffffffffffffffff16905090565b60007f0000000000000000000000000000000000000000000000000000000000000000905090565b6000600163ffffffff16905090565b600060606000600160149054906101000a900460ff1660018111156107bf576107be610ba6565b5b600060018111156107d3576107d2610ba6565b5b149050600060016000805490501015905060007f00000000000000000000000000000000000000000000000000000000000000006002544261081591906112f6565b119050600080471190508380156108295750825b80156108325750805b801561083b5750815b955050505050915091565b60007f0000000000000000000000000000000000000000000000000000000000000000905090565b6000600361ffff16905090565b60008082815481106108905761088f61132a565b5b9060005260206000200160009054906101000a900473ffffffffffffffffffffffffffffffffffffffff169050919050565b60008080549050905090565b60008080549050826000815181106108e9576108e861132a565b5b60200260200101516108fb9190611388565b905060008082815481106109125761091161132a565b5b9060005260206000200160009054906101000a900473ffffffffffffffffffffffffffffffffffffffff16905080600160006101000a81548173ffffffffffffffffffffffffffffffffffffffff021916908373ffffffffffffffffffffffffffffffffffffffff1602179055506000600160146101000a81548160ff021916908360018111156109a6576109a5610ba6565b5b0217905550600067ffffffffffffffff8111156109c6576109c5610c98565b5b6040519080825280602002602001820160405280156109f45781602001602082028036833780820191505090505b5060009080519060200190610a0a929190610aff565b504260028190555060008173ffffffffffffffffffffffffffffffffffffffff1647604051610a38906113ea565b60006040518083038185875af1925050503d8060008114610a75576040519150601f19603f3d011682016040523d82523d6000602084013e610a7a565b606091505b5050905080610ab5576040517fa1d04b3900000000000000000000000000000000000000000000000000000000815260040160405180910390fd5b8173ffffffffffffffffffffffffffffffffffffffff167f794919b0f484b8e90b1b817ac7f880f846fbd8a9813dee2a378e820db094e3d160405160405180910390a25050505050565b828054828255906000526020600020908101928215610b78579160200282015b82811115610b775782518260006101000a81548173ffffffffffffffffffffffffffffffffffffffff021916908373ffffffffffffffffffffffffffffffffffffffff16021790555091602001919060010190610b1f565b5b509050610b859190610b89565b5090565b5b80821115610ba2576000816000905550600101610b8a565b5090565b7f4e487b7100000000000000000000000000000000000000000000000000000000600052602160045260246000fd5b60028110610be657610be5610ba6565b5b50565b6000819050610bf782610bd5565b919050565b6000610c0782610be9565b9050919050565b610c1781610bfc565b82525050565b6000602082019050610c326000830184610c0e565b92915050565b6000604051905090565b600080fd5b600080fd5b6000819050919050565b610c5f81610c4c565b8114610c6a57600080fd5b50565b600081359050610c7c81610c56565b92915050565b600080fd5b6000601f19601f8301169050919050565b7f4e487b7100000000000000000000000000000000000000000000000000000000600052604160045260246000fd5b610cd082610c87565b810181811067ffffffffffffffff82111715610cef57610cee610c98565b5b80604052505050565b6000610d02610c38565b9050610d0e8282610cc7565b919050565b600067ffffffffffffffff821115610d2e57610d2d610c98565b5b602082029050602081019050919050565b600080fd5b6000610d57610d5284610d13565b610cf8565b90508083825260208201905060208402830185811115610d7a57610d79610d3f565b5b835b81811015610da35780610d8f8882610c6d565b845260208401935050602081019050610d7c565b5050509392505050565b600082601f830112610dc257610dc1610c82565b5b8135610dd2848260208601610d44565b91505092915050565b60008060408385031215610df257610df1610c42565b5b6000610e0085828601610c6d565b925050602083013567ffffffffffffffff811115610e2157610e20610c47565b5b610e2d85828601610dad565b9150509250929050565b610e4081610c4c565b82525050565b6000602082019050610e5b6000830184610e37565b92915050565b600080fd5b60008083601f840112610e7c57610e7b610c82565b5b8235905067ffffffffffffffff811115610e9957610e98610e61565b5b602083019150836001820283011115610eb557610eb4610d3f565b5b9250929050565b60008060208385031215610ed357610ed2610c42565b5b600083013567ffffffffffffffff811115610ef157610ef0610c47565b5b610efd85828601610e66565b92509250509250929050565b600073ffffffffffffffffffffffffffffffffffffffff82169050919050565b6000610f3482610f09565b9050919050565b610f4481610f29565b82525050565b6000602082019050610f5f6000830184610f3b565b92915050565b600080fd5b600067ffffffffffffffff821115610f8557610f84610c98565b5b610f8e82610c87565b9050602081019050919050565b82818337600083830152505050565b6000610fbd610fb884610f6a565b610cf8565b905082815260208101848484011115610fd957610fd8610f65565b5b610fe4848285610f9b565b509392505050565b600082601f83011261100157611000610c82565b5b8135611011848260208601610faa565b91505092915050565b6000602082840312156110305761102f610c42565b5b600082013567ffffffffffffffff81111561104e5761104d610c47565b5b61105a84828501610fec565b91505092915050565b60008115159050919050565b61107881611063565b82525050565b600081519050919050565b600082825260208201905092915050565b60005b838110156110b857808201518184015260208101905061109d565b60008484015250505050565b60006110cf8261107e565b6110d98185611089565b93506110e981856020860161109a565b6110f281610c87565b840191505092915050565b6000604082019050611112600083018561106f565b818103602083015261112481846110c4565b90509392505050565b60006020828403121561114357611142610c42565b5b600061115184828501610c6d565b91505092915050565b600060408201905061116f6000830185610f3b565b61117c6020830184610f3b565b9392505050565b60006060820190506111986000830186610e37565b6111a56020830185610e37565b6111b26040830184610e37565b949350505050565b6000819050919050565b6111cd816111ba565b82525050565b600067ffffffffffffffff82169050919050565b6111f0816111d3565b82525050565b600061ffff82169050919050565b61120d816111f6565b82525050565b600063ffffffff82169050919050565b61122c81611213565b82525050565b600060a08201905061124760008301886111c4565b61125460208301876111e7565b6112616040830186611204565b61126e6060830185611223565b61127b6080830184611223565b9695505050505050565b60008151905061129481610c56565b92915050565b6000602082840312156112b0576112af610c42565b5b60006112be84828501611285565b91505092915050565b7f4e487b7100000000000000000000000000000000000000000000000000000000600052601160045260246000fd5b600061130182610c4c565b915061130c83610c4c565b9250828203905081811115611324576113236112c7565b5b92915050565b7f4e487b7100000000000000000000000000000000000000000000000000000000600052603260045260246000fd5b7f4e487b7100000000000000000000000000000000000000000000000000000000600052601260045260246000fd5b600061139382610c4c565b915061139e83610c4c565b9250826113ae576113ad611359565b5b828206905092915050565b600081905092915050565b50565b60006113d46000836113b9565b91506113df826113c4565b600082019050919050565b60006113f5826113c7565b915081905091905056fea2646970667358221220e1e714113247b0d37871711d726d37a2d4c34cb65cc3a0519632b7a7795ce56364736f6c63430008110033",
  "devdoc": {
    "author": "Sean Flaherty",
    "details": "this implements ChainLink VRf v2 and ChainLink Keepers",
    "kind": "dev",
    "methods": {},
    "title": "Sample Smart Contract Lottery Contract",
    "version": 1
  },
  "userdoc": {
    "kind": "user",
    "methods": {},
    "notice": "This contract is for creating a untamperable, decentralized lotterty in the form of a smart contract",
    "version": 1
  },
  "storageLayout": {
    "storage": [
      {
        "astId": 871,
        "contract": "contracts/Lottery.sol:Lottery",
        "label": "s_contestentArray",
        "offset": 0,
        "slot": "0",
        "type": "t_array(t_address_payable)dyn_storage"
      },
      {
        "astId": 888,
        "contract": "contracts/Lottery.sol:Lottery",
        "label": "s_recentWinner",
        "offset": 0,
        "slot": "1",
        "type": "t_address"
      },
      {
        "astId": 891,
        "contract": "contracts/Lottery.sol:Lottery",
        "label": "s_raffleState",
        "offset": 20,
        "slot": "1",
        "type": "t_enum(RaffleState)866"
      },
      {
        "astId": 893,
        "contract": "contracts/Lottery.sol:Lottery",
        "label": "s_lastTimeStamp",
        "offset": 0,
        "slot": "2",
        "type": "t_uint256"
      }
    ],
    "types": {
      "t_address": {
        "encoding": "inplace",
        "label": "address",
        "numberOfBytes": "20"
      },
      "t_address_payable": {
        "encoding": "inplace",
        "label": "address payable",
        "numberOfBytes": "20"
      },
      "t_array(t_address_payable)dyn_storage": {
        "base": "t_address_payable",
        "encoding": "dynamic_array",
        "label": "address payable[]",
        "numberOfBytes": "32"
      },
      "t_enum(RaffleState)866": {
        "encoding": "inplace",
        "label": "enum Lottery.RaffleState",
        "numberOfBytes": "1"
      },
      "t_uint256": {
        "encoding": "inplace",
        "label": "uint256",
        "numberOfBytes": "32"
      }
    }
  }
}